{
  "_format": "hh-sol-artifact-1",
  "contractName": "Lotto",
  "sourceName": "contracts/Lotto.sol",
  "abi": [
    {
      "inputs": [
        {
          "internalType": "address",
          "name": "vrfCoordinatorV2",
          "type": "address"
        },
        {
          "internalType": "uint64",
          "name": "subscriptionId",
          "type": "uint64"
        },
        {
          "internalType": "bytes32",
          "name": "gasLane",
          "type": "bytes32"
        },
        {
          "internalType": "uint256",
          "name": "interval",
          "type": "uint256"
        },
        {
          "internalType": "uint256",
          "name": "entranceFee",
          "type": "uint256"
        },
        {
          "internalType": "uint32",
          "name": "callbackGasLimit",
          "type": "uint32"
        }
      ],
      "stateMutability": "nonpayable",
      "type": "constructor"
    },
    {
      "inputs": [],
      "name": "Lotto__LottoClosedCalculatingWinner",
      "type": "error"
    },
    {
      "inputs": [],
      "name": "Lotto__SendMoreToEnterLotto",
      "type": "error"
    },
    {
      "inputs": [],
      "name": "Lotto__TransferFailed",
      "type": "error"
    },
    {
      "inputs": [
        {
          "internalType": "uint256",
          "name": "currentBalance",
          "type": "uint256"
        },
        {
          "internalType": "uint256",
          "name": "numPlayers",
          "type": "uint256"
        },
        {
          "internalType": "uint256",
          "name": "lottoState",
          "type": "uint256"
        }
      ],
      "name": "Lotto__UpkeepNotNeeded",
      "type": "error"
    },
    {
      "inputs": [
        {
          "internalType": "address",
          "name": "have",
          "type": "address"
        },
        {
          "internalType": "address",
          "name": "want",
          "type": "address"
        }
      ],
      "name": "OnlyCoordinatorCanFulfill",
      "type": "error"
    },
    {
      "anonymous": false,
      "inputs": [
        {
          "indexed": true,
          "internalType": "address",
          "name": "player",
          "type": "address"
        }
      ],
      "name": "LottoEnter",
      "type": "event"
    },
    {
      "anonymous": false,
      "inputs": [
        {
          "indexed": true,
          "internalType": "uint256",
          "name": "requestId",
          "type": "uint256"
        }
      ],
      "name": "RequestedLottoWinner",
      "type": "event"
    },
    {
      "anonymous": false,
      "inputs": [
        {
          "indexed": true,
          "internalType": "address",
          "name": "player",
          "type": "address"
        }
      ],
      "name": "WinnerPicked",
      "type": "event"
    },
    {
      "inputs": [
        {
          "internalType": "bytes",
          "name": "",
          "type": "bytes"
        }
      ],
      "name": "checkUpkeep",
      "outputs": [
        {
          "internalType": "bool",
          "name": "upkeepNeeded",
          "type": "bool"
        },
        {
          "internalType": "bytes",
          "name": "",
          "type": "bytes"
        }
      ],
      "stateMutability": "view",
      "type": "function"
    },
    {
      "inputs": [],
      "name": "enterLotto",
      "outputs": [],
      "stateMutability": "payable",
      "type": "function"
    },
    {
      "inputs": [],
      "name": "getEntranceFee",
      "outputs": [
        {
          "internalType": "uint256",
          "name": "",
          "type": "uint256"
        }
      ],
      "stateMutability": "view",
      "type": "function"
    },
    {
      "inputs": [],
      "name": "getInterval",
      "outputs": [
        {
          "internalType": "uint256",
          "name": "",
          "type": "uint256"
        }
      ],
      "stateMutability": "view",
      "type": "function"
    },
    {
      "inputs": [],
      "name": "getLastTimeStamp",
      "outputs": [
        {
          "internalType": "uint256",
          "name": "",
          "type": "uint256"
        }
      ],
      "stateMutability": "view",
      "type": "function"
    },
    {
      "inputs": [],
      "name": "getLottoState",
      "outputs": [
        {
          "internalType": "enum Lotto.LottoState",
          "name": "",
          "type": "uint8"
        }
      ],
      "stateMutability": "view",
      "type": "function"
    },
    {
      "inputs": [],
      "name": "getNumWords",
      "outputs": [
        {
          "internalType": "uint256",
          "name": "",
          "type": "uint256"
        }
      ],
      "stateMutability": "pure",
      "type": "function"
    },
    {
      "inputs": [],
      "name": "getNumberOfPlayers",
      "outputs": [
        {
          "internalType": "uint256",
          "name": "",
          "type": "uint256"
        }
      ],
      "stateMutability": "view",
      "type": "function"
    },
    {
      "inputs": [
        {
          "internalType": "uint256",
          "name": "index",
          "type": "uint256"
        }
      ],
      "name": "getPlayer",
      "outputs": [
        {
          "internalType": "address",
          "name": "",
          "type": "address"
        }
      ],
      "stateMutability": "view",
      "type": "function"
    },
    {
      "inputs": [],
      "name": "getRecentWinner",
      "outputs": [
        {
          "internalType": "address",
          "name": "",
          "type": "address"
        }
      ],
      "stateMutability": "view",
      "type": "function"
    },
    {
      "inputs": [],
      "name": "getRequestConfirmations",
      "outputs": [
        {
          "internalType": "uint256",
          "name": "",
          "type": "uint256"
        }
      ],
      "stateMutability": "pure",
      "type": "function"
    },
    {
      "inputs": [
        {
          "internalType": "bytes",
          "name": "",
          "type": "bytes"
        }
      ],
      "name": "performUpkeep",
      "outputs": [],
      "stateMutability": "nonpayable",
      "type": "function"
    },
    {
      "inputs": [
        {
          "internalType": "uint256",
          "name": "requestId",
          "type": "uint256"
        },
        {
          "internalType": "uint256[]",
          "name": "randomWords",
          "type": "uint256[]"
        }
      ],
      "name": "rawFulfillRandomWords",
      "outputs": [],
      "stateMutability": "nonpayable",
      "type": "function"
    }
  ],
  "bytecode": "0x6101406040523480156200001257600080fd5b506040516200195c3803806200195c8339818101604052810190620000389190620001ab565b858073ffffffffffffffffffffffffffffffffffffffff1660808173ffffffffffffffffffffffffffffffffffffffff1660601b81525050508573ffffffffffffffffffffffffffffffffffffffff1660a08173ffffffffffffffffffffffffffffffffffffffff1660601b815250508360e081815250508261012081815250508467ffffffffffffffff1660c08167ffffffffffffffff1660c01b81525050816002819055506000600460006101000a81548160ff02191690836001811115620001085762000107620002b3565b5b0217905550426000819055508063ffffffff166101008163ffffffff1660e01b8152505050505050505062000369565b6000815190506200014981620002e7565b92915050565b600081519050620001608162000301565b92915050565b60008151905062000177816200031b565b92915050565b6000815190506200018e8162000335565b92915050565b600081519050620001a5816200034f565b92915050565b60008060008060008060c08789031215620001cb57620001ca620002e2565b5b6000620001db89828a0162000138565b9650506020620001ee89828a0162000194565b95505060406200020189828a016200014f565b94505060606200021489828a0162000166565b93505060806200022789828a0162000166565b92505060a06200023a89828a016200017d565b9150509295509295509295565b6000620002548262000265565b9050919050565b6000819050919050565b600073ffffffffffffffffffffffffffffffffffffffff82169050919050565b6000819050919050565b600063ffffffff82169050919050565b600067ffffffffffffffff82169050919050565b7f4e487b7100000000000000000000000000000000000000000000000000000000600052602160045260246000fd5b600080fd5b620002f28162000247565b8114620002fe57600080fd5b50565b6200030c816200025b565b81146200031857600080fd5b50565b620003268162000285565b81146200033257600080fd5b50565b62000340816200028f565b81146200034c57600080fd5b50565b6200035a816200029f565b81146200036657600080fd5b50565b60805160601c60a05160601c60c05160c01c60e0516101005160e01c61012051611589620003d360003960008181610660015261085a0152600061050f015260006104cb015260006104ec0152600061048f015260008181610302015261035601526115896000f3fe6080604052600436106100c25760003560e01c80635f1b0fd81161007f57806391ad27b41161005957806391ad27b414610238578063c1c244e814610263578063e55ae4e81461028e578063fd6673f5146102cb576100c2565b80635f1b0fd8146101c55780636e04ff0d146101f057806390b841ec1461022e576100c2565b806309bc33a7146100c75780631fe543e3146100f25780632aea97fe1461011b5780634585e33b14610146578063473f1ddc1461016f57806353a2c19a1461019a575b600080fd5b3480156100d357600080fd5b506100dc6102f6565b6040516100e99190611104565b60405180910390f35b3480156100fe57600080fd5b5061011960048036038101906101149190610edd565b610300565b005b34801561012757600080fd5b506101306103c0565b60405161013d91906110e9565b60405180910390f35b34801561015257600080fd5b5061016d60048036038101906101689190610ded565b6103d7565b005b34801561017b57600080fd5b506101846105d7565b6040516101919190611022565b60405180910390f35b3480156101a657600080fd5b506101af610601565b6040516101bc9190611104565b60405180910390f35b3480156101d157600080fd5b506101da610610565b6040516101e79190611104565b60405180910390f35b3480156101fc57600080fd5b5061021760048036038101906102129190610e3a565b61061d565b604051610225929190611066565b60405180910390f35b610236610705565b005b34801561024457600080fd5b5061024d610856565b60405161025a9190611104565b60405180910390f35b34801561026f57600080fd5b5061027861087e565b6040516102859190611104565b60405180910390f35b34801561029a57600080fd5b506102b560048036038101906102b09190610e83565b610887565b6040516102c29190611022565b60405180910390f35b3480156102d757600080fd5b506102e06108cf565b6040516102ed9190611104565b60405180910390f35b6000600254905090565b7f000000000000000000000000000000000000000000000000000000000000000073ffffffffffffffffffffffffffffffffffffffff163373ffffffffffffffffffffffffffffffffffffffff16146103b257337f00000000000000000000000000000000000000000000000000000000000000006040517f1cf993f40000000000000000000000000000000000000000000000000000000081526004016103a992919061103d565b60405180910390fd5b6103bc82826108dc565b5050565b6000600460009054906101000a900460ff16905090565b60006103f16040518060200160405280600081525061061d565b509050806104605747600380549050600460009054906101000a900460ff16600181111561042257610421611469565b5b6040517f42e842cb0000000000000000000000000000000000000000000000000000000081526004016104579392919061111f565b60405180910390fd5b6001600460006101000a81548160ff0219169083600181111561048657610485611469565b5b021790555060007f000000000000000000000000000000000000000000000000000000000000000073ffffffffffffffffffffffffffffffffffffffff16635d3b1d307f00000000000000000000000000000000000000000000000000000000000000007f000000000000000000000000000000000000000000000000000000000000000060037f000000000000000000000000000000000000000000000000000000000000000060016040518663ffffffff1660e01b8152600401610550959493929190611096565b602060405180830381600087803b15801561056a57600080fd5b505af115801561057e573d6000803e3d6000fd5b505050506040513d601f19601f820116820180604052508101906105a29190610eb0565b9050807ffd88a31c32406b28590b7ce7963258d44afe17df853230d7866b5ce79ba08cd160405160405180910390a250505050565b6000600160009054906101000a900473ffffffffffffffffffffffffffffffffffffffff16905090565b6000600163ffffffff16905090565b6000600361ffff16905090565b600060606000600460009054906101000a900460ff16600181111561064557610644611469565b5b6000600181111561065957610658611469565b5b14905060007f00000000000000000000000000000000000000000000000000000000000000006000544261068d919061128a565b119050600080600380549050119050600080471190508280156106ad5750835b80156106b65750805b80156106bf5750815b9550856040518060400160405280600381526020017f30783000000000000000000000000000000000000000000000000000000000008152509550955050505050915091565b600254341015610741576040517fedb8f12b00000000000000000000000000000000000000000000000000000000815260040160405180910390fd5b6000600181111561075557610754611469565b5b600460009054906101000a900460ff16600181111561077757610776611469565b5b146107ae576040517fd76af9bc00000000000000000000000000000000000000000000000000000000815260040160405180910390fd5b6003339080600181540180825580915050600190039060005260206000200160009091909190916101000a81548173ffffffffffffffffffffffffffffffffffffffff021916908373ffffffffffffffffffffffffffffffffffffffff1602179055503373ffffffffffffffffffffffffffffffffffffffff167f1dcd09d5d34186d758ca3a0b597a773e80b5b1febddac88410eced5d743cc7f660405160405180910390a2565b60007f0000000000000000000000000000000000000000000000000000000000000000905090565b60008054905090565b60006003828154811061089d5761089c611498565b5b9060005260206000200160009054906101000a900473ffffffffffffffffffffffffffffffffffffffff169050919050565b6000600380549050905090565b6000600380549050826000815181106108f8576108f7611498565b5b602002602001015161090a91906113da565b905060006003828154811061092257610921611498565b5b9060005260206000200160009054906101000a900473ffffffffffffffffffffffffffffffffffffffff16905080600160006101000a81548173ffffffffffffffffffffffffffffffffffffffff021916908373ffffffffffffffffffffffffffffffffffffffff160217905550600067ffffffffffffffff8111156109ab576109aa6114c7565b5b6040519080825280602002602001820160405280156109d95781602001602082028036833780820191505090505b50600390805190602001906109ef929190610bb8565b506000600460006101000a81548160ff02191690836001811115610a1657610a15611469565b5b0217905550426000819055506000736e84adfb9d27daaa6217b9ddcd96d1777288a125905060008273ffffffffffffffffffffffffffffffffffffffff166064606147610a639190611230565b610a6d91906111ff565b604051610a799061100d565b60006040518083038185875af1925050503d8060008114610ab6576040519150601f19603f3d011682016040523d82523d6000602084013e610abb565b606091505b5050905060008273ffffffffffffffffffffffffffffffffffffffff1647604051610ae59061100d565b60006040518083038185875af1925050503d8060008114610b22576040519150601f19603f3d011682016040523d82523d6000602084013e610b27565b606091505b5050905080610b3557600080fd5b81610b6c576040517f0eb4e47f00000000000000000000000000000000000000000000000000000000815260040160405180910390fd5b8373ffffffffffffffffffffffffffffffffffffffff167f5b690ec4a06fe979403046eaeea5b3ce38524683c3001f662c8b5a829632f7df60405160405180910390a250505050505050565b828054828255906000526020600020908101928215610c31579160200282015b82811115610c305782518260006101000a81548173ffffffffffffffffffffffffffffffffffffffff021916908373ffffffffffffffffffffffffffffffffffffffff16021790555091602001919060010190610bd8565b5b509050610c3e9190610c42565b5090565b5b80821115610c5b576000816000905550600101610c43565b5090565b6000610c72610c6d8461117b565b611156565b90508083825260208201905082856020860282011115610c9557610c94611500565b5b60005b85811015610cc55781610cab8882610dc3565b845260208401935060208301925050600181019050610c98565b5050509392505050565b6000610ce2610cdd846111a7565b611156565b905082815260208101848484011115610cfe57610cfd611505565b5b610d09848285611367565b509392505050565b600082601f830112610d2657610d256114fb565b5b8135610d36848260208601610c5f565b91505092915050565b60008083601f840112610d5557610d546114fb565b5b8235905067ffffffffffffffff811115610d7257610d716114f6565b5b602083019150836001820283011115610d8e57610d8d611500565b5b9250929050565b600082601f830112610daa57610da96114fb565b5b8135610dba848260208601610ccf565b91505092915050565b600081359050610dd28161153c565b92915050565b600081519050610de78161153c565b92915050565b60008060208385031215610e0457610e0361150f565b5b600083013567ffffffffffffffff811115610e2257610e2161150a565b5b610e2e85828601610d3f565b92509250509250929050565b600060208284031215610e5057610e4f61150f565b5b600082013567ffffffffffffffff811115610e6e57610e6d61150a565b5b610e7a84828501610d95565b91505092915050565b600060208284031215610e9957610e9861150f565b5b6000610ea784828501610dc3565b91505092915050565b600060208284031215610ec657610ec561150f565b5b6000610ed484828501610dd8565b91505092915050565b60008060408385031215610ef457610ef361150f565b5b6000610f0285828601610dc3565b925050602083013567ffffffffffffffff811115610f2357610f2261150a565b5b610f2f85828601610d11565b9150509250929050565b610f42816112be565b82525050565b610f51816112d0565b82525050565b610f60816112dc565b82525050565b6000610f71826111d8565b610f7b81856111e3565b9350610f8b818560208601611376565b610f9481611514565b840191505092915050565b610fa881611355565b82525050565b6000610fbb6000836111f4565b9150610fc682611525565b600082019050919050565b610fda816112f9565b82525050565b610fe981611327565b82525050565b610ff881611331565b82525050565b61100781611341565b82525050565b600061101882610fae565b9150819050919050565b60006020820190506110376000830184610f39565b92915050565b60006040820190506110526000830185610f39565b61105f6020830184610f39565b9392505050565b600060408201905061107b6000830185610f48565b818103602083015261108d8184610f66565b90509392505050565b600060a0820190506110ab6000830188610f57565b6110b86020830187610ffe565b6110c56040830186610fd1565b6110d26060830185610fef565b6110df6080830184610fef565b9695505050505050565b60006020820190506110fe6000830184610f9f565b92915050565b60006020820190506111196000830184610fe0565b92915050565b60006060820190506111346000830186610fe0565b6111416020830185610fe0565b61114e6040830184610fe0565b949350505050565b6000611160611171565b905061116c82826113a9565b919050565b6000604051905090565b600067ffffffffffffffff821115611196576111956114c7565b5b602082029050602081019050919050565b600067ffffffffffffffff8211156111c2576111c16114c7565b5b6111cb82611514565b9050602081019050919050565b600081519050919050565b600082825260208201905092915050565b600081905092915050565b600061120a82611327565b915061121583611327565b9250826112255761122461143a565b5b828204905092915050565b600061123b82611327565b915061124683611327565b9250817fffffffffffffffffffffffffffffffffffffffffffffffffffffffffffffffff048311821515161561127f5761127e61140b565b5b828202905092915050565b600061129582611327565b91506112a083611327565b9250828210156112b3576112b261140b565b5b828203905092915050565b60006112c982611307565b9050919050565b60008115159050919050565b6000819050919050565b60008190506112f482611528565b919050565b600061ffff82169050919050565b600073ffffffffffffffffffffffffffffffffffffffff82169050919050565b6000819050919050565b600063ffffffff82169050919050565b600067ffffffffffffffff82169050919050565b6000611360826112e6565b9050919050565b82818337600083830152505050565b60005b83811015611394578082015181840152602081019050611379565b838111156113a3576000848401525b50505050565b6113b282611514565b810181811067ffffffffffffffff821117156113d1576113d06114c7565b5b80604052505050565b60006113e582611327565b91506113f083611327565b925082611400576113ff61143a565b5b828206905092915050565b7f4e487b7100000000000000000000000000000000000000000000000000000000600052601160045260246000fd5b7f4e487b7100000000000000000000000000000000000000000000000000000000600052601260045260246000fd5b7f4e487b7100000000000000000000000000000000000000000000000000000000600052602160045260246000fd5b7f4e487b7100000000000000000000000000000000000000000000000000000000600052603260045260246000fd5b7f4e487b7100000000000000000000000000000000000000000000000000000000600052604160045260246000fd5b600080fd5b600080fd5b600080fd5b600080fd5b600080fd5b600080fd5b6000601f19601f8301169050919050565b50565b6002811061153957611538611469565b5b50565b61154581611327565b811461155057600080fd5b5056fea264697066735822122016ddd34c3911922efef57e1eab5829c8f18204974a7b789ac6c2b2390886a8b864736f6c63430008070033",
  "linkReferences": {},
  "deployedLinkReferences": {}
}